:100000000010001091670000D1670000D367000066
:10001000000000000000000000000000C8B8FEEF73
:10002000000000000000000000000000D567000094
:100030000000000000000000D767000075550000B8
:10004000DB670000DD670000DF670000E16700009C
:10005000E3670000E5670000E7670000E96700006C
:10006000EB670000ED670000EF670000F16700003C
:10007000F3670000F5670000F7670000F96700000C
:10008000FB670000FD670000FF67000001680000DB
:10009000036800002D550000000000000000000073
:1000A00007680000096800000B68000000000000FD
:1000B0000D6800000F680000116800001368000060
:1000C00010B5064C2378002B07D10548002802D034
:1000D000044800E000BF0121217010BD8400001021
:1000E000000000003C79000008B5084B002B03D04D
:1000F0000748084900E000BF07480168002903D00D
:10010000064A002A00D0904708BDC0460000000003
:100110003C79000088000010800000100000000002
:10012000F0B593B001F0D0F8DD4FDE49DE4B08208A
:100130000880DE4D1022391C1A800126DC48062476
:1001400028313B1C2C800E703133DA493D1C0024D1
:100150001E702222786229353B1C381C3E74BA740A
:100160002C702B3340222C307963D34DD3493E1C65
:100170001A702A360A220470231C381C34707960E5
:100180008D60BC60FC607C74BC6101F0C8F87B6B66
:10019000061C03209847201C7A6B9047A64201D08A
:1001A00002F08CFE3C1C283402202070381C01F028
:1001B000DBF902F0DFFEC24DC2492F6029617E7873
:1001C000C14B013E2E71FA7C7B62FF24282A03D0AA
:1001D0000124022A00D1032400206C71A871EC7163
:1001E000FF21282A03D00121022A00D103212972EC
:1001F00005F0DAF80520012102F07EFE012012212F
:1002000002F07AFE04200B2102F076FE7D68AF4EEC
:10021000B54201D075607E60AD4F0125376002F0B8
:100220004DFE012001F07CFDAA4C82239A00201C87
:10023000002106F0F1FA8522201C0021520006F070
:10024000EBFAA548E571C16F802677020F43C767B7
:10025000C46F80235A012243C267A0480226A049E6
:10026000A04F0660A04CA148A14B39608322FA211F
:10027000256000271D600324C260412301608022A5
:100280009C494760C4608362476085600761026380
:100290004560900308603A1C1520291C01F0E6FA1D
:1002A000391C152001F0CEFA934801F015FB291CEA
:1002B000152001F0C7FA914801F00EFB1520391CFA
:1002C00001F0C0FA8E4B8F4C0AAA5020DE600A2142
:1002D000FF2627701770577018705D705F609F6001
:1002E0001A619F775F771E77D97702F029F9B842B4
:1002F00001D1844F3D7000270C247C43824DBB1CF0
:100300002A197F4C0AAE58089C32F9015025012366
:1003100004923070717025700222002558420A2123
:1003200065706560A560E2602661A57765772077D6
:10033000E17702F005F9A84212D050220123049976
:100340006560A560A57765770125227063700C2034
:100350006A421423E06021612277E37702F0F0F82B
:1003600001370A2FC8D1684C00252560644C3570D0
:100370007570502002212661FF26E7772070657096
:100380006560A560E160A5776577267702F0D8F80B
:100390005D4FA84211D0391C502201230220543154
:1003A0006560A560A5776577142522706370E060AD
:1003B00021612677E57702F0C3F83C1C5434267897
:1003C00001223240227055373878192105F072F930
:1003D00039704D4F7B68B868984202D0BB600125E8
:1003E00000E00025B9697C69A14201D07E69BE6147
:1003F00002F010FE02F04CFC00280AD1002D08D1BA
:10040000344D28886F882C1CB84201D000F001FCC4
:10041000DFE7234F02207D687A6B904701207B6BDA
:100420009847291C14220023381C00F078FF3B1C3D
:10043000291C3833381C172200F071FF796B00201B
:10044000884702F0F5FC164E0A2430780022113855
:10045000C7B20094301C391C082301F0FDF80025B8
:10046000341CA8420FD1294F201C391C01F0AAF8D6
:10047000327818480A3AD6B2254D05960023455DD4
:100480000493244856E0244BEAB2E95C201C009116
:100490000023391C013500F046FF0A2DF3D1E2E7B5
:1004A000A80000100400001000000010020000105E
:1004B00057100000211000008120000028000010CB
:1004C0000800001065340000631000001C000010DC
:1004D0005F140000C00100100480044098800440B4
:1004E000E933000004050010A440044000800040EF
:1004F000A840044000E100E040420F00400D03002E
:1005000030040010A400001008050010406800002E
:100510003101000010270000147100000499CB4E37
:100520008A550A2105F082F8049B80B201330493B6
:10053000052B07D030228542F0D3291A01328DB223
:10054000D2B2F8E700250822F31C05997571201C2A
:1005500004F0CFFF02F096FBBD4A90425AD1391CFD
:10056000201C01F02FF8291C0822BA4B201C04F093
:10057000C0FF291C1022B84B201C04F0BAFFB7485A
:1005800009218768381C039703F088FB1E21031C90
:100590001022201C04F0ADFF291C1822B04B201C97
:1005A00004F0A7FF00F078FE092103F077FB1E217D
:1005B000031C1822201C04F09CFF291CA94B20229C
:1005C000201C04F096FFA84A0921106803F066FB7E
:1005D0001E21031C2022201C04F08BFF291C282232
:1005E000A24B201C04F085FFA14B0921186803F0E1
:1005F00055FB1E21031C2822201C04F07AFF291C15
:10060000201C30229B4B04F074FF9B490D78012184
:10061000481B63E0994EB04267D1201C984900F016
:10062000D1FF291C0822974B201C04F062FF291CD3
:100630001022954B201C04F05CFF8848092140697A
:1006400003F02CFB1E21031C1022201C04F051FF80
:10065000291C18228D4B201C04F04BFF8C4F0321CA
:10066000388801F04DFF1E21031C1822201C04F0C5
:1006700040FF291C874B2022201C04F03AFF3A1C23
:10068000FC32106B092103F009FB2022031C1E2100
:10069000201C04F02EFF0321B88801F031FF3C211B
:1006A000031C1822201C04F024FF291C28227A4B4A
:1006B000201C04F01EFF802399007B1828223C2177
:1006C000201C04F016FF291C201C3022624B04F071
:1006D00010FF624D0921AE680296301C03F0DEFA6D
:1006E0001E21031C3022201C68E26C49884247D13D
:1006F00067480D30FF3002F027FB01F07FF9391C0D
:10070000201C00F05FFF291C0722654B201C04F011
:10071000F0FE0E22634B291C201C04F0EAFE624FFF
:100720005B4E0221F05D01F0EBFE1E21031C0E2248
:10073000201C04F0DEFE291C15225C4B201C04F05A
:10074000D8FE5B4E23211522331C201C04F0D1FE61
:100750003A211522574B201C04F0CBFE331F5321A6
:100760001522201C04F0C5FE331D291C1C22201C50
:1007700004F0BFFE331C1433201C291C23221DE26D
:100780004D4B984200D01BE2344E301C343002787E
:10079000002A00D0CFE13E4B311C0D331C31FF331A
:1007A00021CB21C13A4D4549FC35286905F008FCAB
:1007B00001F090FB424905F003FC404905F000FCC4
:1007C000391C7062201C00F0FDFE02F031FB201C81
:1007D00006213622152300F0C5FF201C06213522F4
:1007E000032300F0ADFF1B2135220323201C00F062
:1007F000A7FF01F089FA1D21031C3A22201C04F0F6
:1008000078FE04992C230093201C0A1C00F024FF7E
:10081000002804D01B20011C152202F021FB1C4FD4
:100820002848FC37F96905F0FBFC244905F0C8FBB2
:100830002549041C04F0D0FF002847D0201C224981
:1008400005F0EEFC204905F0EBFCF1E7B0010010EB
:1008500074760000747000008170000008050010BC
:10086000877000008F700000A000001095700000DD
:10087000C80300109B700000A4000010D874000092
:1008800040680000A0700000A9700000AE70000079
:10089000C0010010B4700000BA700000E4750000E0
:1008A000C8700000D370000031010000D970000052
:1008B00062050010E27000002477000035FA8E3CDB
:1008C000767BC24A0000E143DB0F4940201C01F067
:1008D00001FBDE4905F074FB05F07CFE051C201CC5
:1008E00001F0CCFAD94905F06BFB05F073FE6AB252
:1008F00044B2D10F8B18E60F32195F101B3751101D
:10090000FBB21B244F421B351B37EDB2201AFEB23F
:10091000C4B25A1BAB4200D8EA1AD1B20491371BB9
:10092000A64200D8A71B049A0120FFB20690974266
:100930000AD8391C201C321C049F049100212C1C55
:100940001E1C051C131C0691A64205D8281C221C3F
:100950001D1C341C031C161C7908C8B2FF2205900C
:100960000792AB421DD9012307931AE0069BB848B2
:10097000002B19D1211C2A1C00F054FD0598049964
:10098000421AD3B2D8B205906A461421885600287C
:1009900005DA079ADB19AD18D9B2EDB20591013429
:1009A000E4B2B442E2D902E0291C221CE4E70024AC
:1009B000A84D99267700E95DA14251D9261C283619
:1009C000F100681801F024FAA34D2A1C3632107881
:1009D000002842D02E6BA86A9C4905F0F1FA311C20
:1009E00005F0FCF89D4904F023FF05F0F3FD97495D
:1009F000C7B2E86A05F0E4FA311C05F0EFF8011C13
:100A0000964805F00DFC05F0E5FD914EC5B2391C88
:100A1000301C2A1C00F006FD102C16D97B1ED9B202
:100A20002A1C301C00F0FEFC791C2A1CC9B2301CA8
:100A300000F0F8FC6A1ED2B2301C391C013500F0FF
:100A4000F1FCEAB2301C391C05E0082C05D901374D
:100A5000F9B2301C2A1C00F0E5FC0134E4B2A7E72F
:100A60007F4C002004940590049A1378002B59D0F1
:100A7000059E0C257543784F78199C3001F090F94C
:100A80003C6BB86A714905F09BFA211C05F0A6F889
:100A9000724904F0CDFE05F09DFD6C49051CF86A15
:100AA00005F08EFA211C05F099F8011C6B4805F041
:100AB000B7FB05F08FFD3637061C3878644CEDB275
:100AC000002821D00498636A0278201C4032D7B2F3
:100AD0009847F6B2B21E8018A91CC2B23B1CC9B21C
:100AE000201C04F0BBFCF31EEF1EDAB20623F9B2A1
:100AF0000093201C00F0B0FD002813D0281C311CEE
:100B0000022202F0ADF90DE0049A616A1378201C0C
:100B10004033DFB288478619F2B2201C291C3B1CE7
:100B200004F09CFC059C049D01340C35059404954F
:100B30000A2C99D144E002F07BF946480D30FF3091
:100B400002F002F900F05AFF201C464900F03AFD7D
:100B5000331C5E33291C1422201C04F0CAFC331CF5
:100B60006E33291C2622201C04F0C3FC331C563390
:100B7000291C3822201C04F0BCFC331C8C33382286
:100B80001821201C04F0B5FC201C391C00F01AFDB3
:100B9000291C0A22344B201C04F0ABFC291C1C220B
:100BA000324B201C04F0A5FC291C2E22304B201CAB
:100BB00004F09FFC2F4B201C18212E2204F099FCDE
:100BC00002F00AF802F026FA214CA669251C002E34
:100BD00001D0201CB047626B67680220904701205B
:100BE000636B9847281C391C1522002300F097FBE3
:100BF000061E06D02B1C3833281C391C172200F087
:100C00008EFB616B00208847002E00D019E4FFF7AF
:100C1000F7FB2A882E1CFF36727203F0A7FC00280F
:100C200000D1CDE103F058F8737A9C460023614669
:100C3000DAB25718F9B207B20F4E3F2F1EDC242F3D
:100C40001CD0201CFF30417228E0C0460000A841A3
:100C5000A8000010C0010010080500100000D841D5
:100C6000AC050010656B0000E9700000F270000038
:100C7000FC70000001710000B60100100133082B68
:100C800008D0F218013A10706046C118CEB2A71908
:100C9000387ACCE7221CFF32517207220023301C25
:100CA000CA49B35405F050FD002800D0B1E004F06B
:100CB00012FB002800D183E110A803F0A5FC002856
:100CC00000D17DE104F007FB002800D178E10DAFF1
:100CD000381C5621412204F0DFFA002800D16FE1D0
:100CE00004F0F9FA002800D16AE186225300E018E6
:100CF00001F0B0FB002800D162E104F0ECFA00281A
:100D000000D15DE10EAE301C4E21532204F0C4FA36
:100D1000002800D154E13178002906D0231CFC338F
:100D20001A69802006069119196104F0D4FA002886
:100D300000D145E188235A00A01801F08BFB002860
:100D400000D13DE104F0C7FA002800D138E10FAE30
:100D5000301C4521572204F09FFA002800D12FE1D2
:100D60003078002806D0231CFC335A6980210806FD
:100D700012185A6104F0AFFA002800D120E18A234A
:100D80005900601803F040FC002800D118E104F07D
:100D9000A2FA002800D113E18C204200A01803F031
:100DA00033FC002800D10BE104F095FA002800D1B3
:100DB00006E111A8002103F0F3FB002800D1FFE0B9
:100DC00004F089FA002800D1FAE08E235900601857
:100DD00003F01AFC002800D1F2E004F07CFA0028AD
:100DE00000D1EDE0301C4521572204F055FA0028CF
:100DF00000D1E5E03678002E06D0231CFC335A697A
:100E00008020010656185E613F78002F00D1D7E0A0
:100E1000C6E0301C6E4905F097FC071E00D0C2E00A
:100E200004F059FA002800D1CAE00BA803F0ECFB4B
:100E3000002800D1C4E00B9804F0E2FC6549061CD0
:100E400004F0F4FB92214A00A8546421301C04F001
:100E5000EDFB642104F02EFC5F482954301C642112
:100E600004F028FC93235E00A955211CFE314F8518
:100E700004F031FA002800D1A2E086277A00A018F9
:100E800001F0E8FA002800D19AE004F024FA0028E2
:100E900000D195E06E462636301C4E21532204F0D8
:100EA000FBF9002800D18BE03078002806D0231C05
:100EB000FC33196980273A068E181E6104F00BFA7C
:100EC00000287DD088204300E01801F0C3FA0028F4
:100ED00076D004F000FA002872D06F462737381C0D
:100EE0004521572204F0D8F9002869D03978002923
:100EF00006D0261CFC36726980200306D118716169
:100F000004F0E9F900285BD00CA8002103F048FBAD
:100F1000002855D00CAA9826137870002B5404F0A2
:100F2000DAF900284CD00DA8002103F039FB002885
:100F300046D00DAE29493078685404F0CCF9002829
:100F40003ED00EA803F060FB002839D004F0C3F9AE
:100F5000002835D00FA803F057FB002830D004F04C
:100F6000BAF900282CD0381C4D216D2204F094F9D8
:100F7000002825D004F0AFF9002821D010A803F0F4
:100F800043FB00281CD004F0A6F9002818D011A8B3
:100F9000002103F005FB002812D00C9F002F0FD07A
:100FA00002F0ACFE0CE03178002909D080208200EC
:100FB000A018311C082205F0D8FB094B0026EE547E
:100FC0002A886B889A4225D11EE0C046067100002F
:100FD0000D71000010270000250100003101000004
:100FE0000702000023181E7A242E0AD0013086B290
:100FF0000027FF21B1427F41628878423040904211
:10100000F0D128800020A871FC34256B01352563C0
:10101000FFF7DFF92888E9E7EFF30880001C704745
:1010200070470020704730B585788468521BD5B270
:10103000072D03D940790722241815400120A84024
:101040006118C2B20C78002B02D022430A7001E072
:1010500094430C7030BD00207047007870470078D2
:1010600070472A3000787047411808784B780202A0
:10107000D11888B2704700000F4A936819020B0A12
:10108000191E814203D251680902090AC918081AB7
:10109000834209D391680902090A81420AD9994217
:1010A000F8D907E0994205D891680902090A8142F6
:1010B000FAD8F7E77047C04610E000E000787047C4
:1010C00008B54018FFF7FAFF08BD0000014B18688B
:1010D0000078704750040010024B1A6801321A6001
:1010E0007047C0465004001008B5FFF7EFFF002816
:1010F00004D0202802D8FFF7EFFFF6E708BD10B5AF
:101100000024FFF7E3FF031C303BD8B2092806D8C0
:101110000A2254432418E4B2FFF7DEFFF1E7FFF799
:10112000E3FF201C10BD704789000858704700007D
:1011300038B50A4C051CE169006805F071F80849EA
:1011400004F03EFF216AE062686805F069F8011C5E
:10115000606A04F035FFA06238BDC0460805001083
:1011600000CCD84710B50021041C04F035FB002842
:1011700002D1802318062418201C10BD002801D19C
:10118000014800E00148704722710000A67200008B
:10119000044B34331A780132D0B2012800D9002030
:1011A0001870704708050010074A0023111C101C16
:1011B0003731D363536438301364936439320B701E
:1011C000037013707047C04608050010002801D155
:1011D000014800E001487047207100001E710000C6
:1011E000002801D1014800E001487047E272000088
:1011F000E0720000044B002802D120221A7001E0A6
:1012000040301870181C70475404001008B502785C
:10121000031C113AD1B214290ED8012052B2011C7C
:1012200091400A1C05490A4207D1024204D0D868FD
:1012300005F094FAC0B200E0002008BD1C001800C0
:1012400008B50821FFF73CFF08BD08B50068FFF7A7
:10125000F7FF08BD0D4A8021131DD86F49020143D5
:10126000D967D96F20200143D967536802210B4306
:10127000074853600122026380234263054AD9056F
:10128000402008604A610A617047C04600800440FF
:1012900000400440C4090000074B084A10B51B6811
:1012A00014681A1EA24203D201CB05498842F8D025
:1012B000044B981A10BDC046C8030010A0000010CF
:1012C0002322110F0010001008B5FFF7A5FE03231D
:1012D000064A9843043810600549064808601368B8
:1012E000984202D2044902C0F9E708BDA0000010EC
:1012F000C8030010000A00102322110F10B50B1CA8
:101300004A788178914209D8C478944206D31978F2
:1013100044798C4202D91B79FFF785FE10BD10B5C8
:101320000C68A04710BD70B51E1C04AB44681D7846
:10133000031C2D3319705A70DE709D70211C3B22E6
:10134000FFF7EDFF70BDF0B585B0071C0E1C0392D2
:101350001C1C1D1C039BE218501BC2B2072D09D98F
:10136000FF230093381C311C0123083DFFF7DBFFEE
:10137000EDB2EFE7E108CD005B190720DAB20440D7
:101380000BD0444001342040FF248440E5B2009556
:10139000381C311C0123FFF7C6FF05B0F0BDF0B5C6
:1013A00085B0071C0391161C1C1C1D1C039BE11817
:1013B000481BC1B2072D09D9FF230093381C321CEA
:1013C0000023083DFFF7AFFFEDB2EFE7E208D500DD
:1013D0005B190720D9B204400BD0444001342040AF
:1013E000FF248440E5B20095381C321C0023FFF72F
:1013F0009AFF05B0F0BDF7B51D1C08AB071C1878A7
:101400000E1C0092019000240099381C0A192B1C14
:10141000D2B2311CFFF7C3FF01340198E3B2984206
:10142000F2D1F7BD10B5031C2D330C1C41685A7066
:101430001C703222FFF773FF10BD13B56C460734E2
:101440004722231CFFF76BFF207816BD13B56C46AF
:1014500007344622231CFFF762FF207816BDF7B53C
:10146000061C171C1C1C4D68322A49D006D82C2A91
:1014700046D02D2A58D0172A06D10CE0462A36D05D
:10148000472A38D03B2A4FD0301C291C3A1C231C39
:10149000FFF745FF67E0291CFFF741FF291C301CBF
:1014A000FFF7D4FFA178CA438018C7B2291C301CAB
:1014B000FFF7CCFF2378D9434218D0B2291C009003
:1014C000301CFFF7BAFFE378D9434218D0B2291C89
:1014D0000190301CFFF7B1FF66782770F5436F4627
:1014E00041193B7938786370A070E1703AE0291CAB
:1014F000FFF7ACFF02E0291CFFF79FFF207031E0EF
:10150000291C301CFFF799FF6378C01AC1B2009103
:10151000301C291CFFF79AFF2278831A0098013BA0
:1015200001382370607017E0291C301CFFF785FF1D
:101530006178431ADAB2291C301C0092FFF786FF4B
:101540002178009B401AE178032202310138013BE7
:10155000114020706370E170301C291C3A1C231C60
:10156000FFF7DDFE0120FEBD836810B5002B27D0FC
:10157000021C28321478011C29310232002C03D1BC
:101580005C790C701B7B08E0012C03D1DC7B0C70B8
:101590001B7C02E05C7B0C709B7B13700978002342
:1015A000D256031C4CB22B33A11A1A788CB2402AA3
:1015B00001D1A4B202E0E1B251438C092C30047095
:1015C00010BD0000836810B5041C8B4204D08160FC
:1015D000FFF7CAFF0148606210BDC0465710000007
:1015E0000323184010B50C490C4C8000415820686A
:1015F000FFF7E8FF2468221C29322A341078237868
:10160000C11A8C00621850B2C310DCB261B2052955
:1016100000DC0624E0B210BDC40400100800001075
:10162000C07A7047807A704708B50821FFF71CFD23
:1016300008BD08B50621FFF717FD08BD704700007B
:1016400008B5FFF7FBFF0321022801D8014B195C05
:10165000081C08BD2771000070B504AC2678551E23
:10166000AC19E5B2041C393426780234247894424B
:1016700005D3B54208D20024AA4219D904E00024B7
:10168000B54215D3AA4213D9061C3A304A1E007837
:10169000D3183836DDB23278884203D3012495421C
:1016A00006D202E00024954202D38D4289414C4289
:1016B000201C70BDF0B585B003930AAB1F78039B67
:1016C0000097061C0D1C141CFFF7C6FF002806D04F
:1016D0000097301C291C221C039BFFF78CFE05B0D1
:1016E000F0BDF0B585B01F1C0AAB051C18783B1C7B
:1016F00003900090281C0C1C161CFFF7ADFF00285F
:101700001CD0321C281C211C3B1CFFF748FE321C3D
:10171000281C211C039BFFF716FE611ECA19D1B2BB
:10172000281C321C039BFFF70EFE039B013EF018A2
:10173000C2B2211C281C3B1CFFF731FE05B0F0BDD6
:10174000F7B51C1C00930123071C0E1C151CFFF78A
:1017500083FF002805D0381C311C2A1C231CFFF7EE
:10176000F2FDF7BDF7B51C1C01230093231C071CD9
:101770000E1C151CFFF770FF002805D0381C311C0B
:101780002A1C231CFFF70BFEF7BD00001A4B70B597
:101790005A680124061C224318485A60C16F8025EC
:1017A0006B020B43C367C16F802215010D43C567F0
:1017B000134A144814490023022504600B609566FF
:1017C000124D5466C720124A6B6028602860114988
:1017D000106803F02BFF70430F4E1049801903F07F
:1017E00025FF002800D1201CFE24013020400223C8
:1017F00028616B6070BDC0460080044004800440D6
:101800000040044094800440B04004400000044084
:1018100074000010102700009F860100A0860100C0
:101820000209064B9100CA58054953580F2210402F
:10183000C340181C012108407047C046D072000008
:10184000FC3F00000209084B9200D3580F221040C1
:10185000012282409000002901D1C15002E0012103
:101860004A42C2507047C046D0720000164B30B595
:10187000DD6F802464022C4306254543DC67134B4F
:101880005C19002A01D1628800E0A2880625454340
:101890000F4C5B5B1D192A600E4B020994008022DD
:1018A000E55813020F24002906D1E95820400124ED
:1018B0008440A143E95006E020400122E9588240DB
:1018C000101C0843E85030BD0480044062710000E1
:1018D00000400440D072000038B50B4B041C0B498B
:1018E000186803F0A3FE44430948456829028D0A9D
:1018F000AC4204D9281C641BFFF7BEFBF8E7201C90
:10190000FFF7BAFB38BDC0467400001040420F001C
:1019100010E000E0002804D05323002905D14E2315
:1019200003E05723002900D1452320201370507075
:101930007047002370B5061C0D1C141C8354002C2A
:101940000DD0281C0A2103F0B5FE013C3031E4B271
:101950003155281C0A2103F069FE85B2EFE770BDFE
:1019600073B50E1C0021051C141C03F021FF00217F
:10197000002803D0802318062D180121221C301CBA
:10198000FFF7C8FF01A9281C04F0C0FE051C019840
:1019900003F036FFA61C032281B2301CFFF7C9FFFB
:1019A000281C0A4904F00CFB01A904F0AFFE2E210B
:1019B0006171019803F024FFA51D81B20422281C47
:1019C000FFF7B7FF0022A27273BDC04600401C465D
:1019D00010B5094C0B2806D80C21081A2D23C1B2CA
:1019E0002370601C02E00C38C1B2201C0222FFF7F9
:1019F000A0FF201C10BDC0468E050010F7B5922335
:101A0000204D5800295C2E1CFC360191B0691E49FE
:101A100004F0D6FA03F0F4FE1C4C81B20322201C21
:101A2000FFF787FFF06903F0EBFE271D81B2032269
:101A3000381CFFF77EFF621E019B1078261C1918C8
:101A40000C31C8B2182103F035FE3636301C104F69
:101A5000C9B20222FFF76DFF201CE95D3930022276
:101A6000FFF767FF93225300201CE95C3C30022201
:101A7000251CFFF75EFF38353A203B342870207074
:101A8000F7BDC046C0010010560EED3F5E050010C8
:101A90002501000008B500680C21FFF711FB08BD07
:101AA000002805D00138C3B2102B00D91020C0B2D5
:101AB0007047000038B50D1C141C00281DD0104BB9
:101AC0001860FFF711FBFFF701FB002815D0A842B3
:101AD0000CD0FFF701FBFFF707FBFFF7F7FA3038F1
:101AE000C0B20928EFD8FFF70AFBECE7FFF7F4FADA
:101AF000FFF7FAFAFFF703FB041C201C38BDC046B1
:101B00005004001008B50022FFF7D4FF08BD08B547
:101B1000FF22FFF7CFFF08BD031DD97F4018807E4D
:101B2000704708B5031DD97F0239C9B2FFF7FCFA27
:101B300008BD08B5031DD97F0139C9B2FFF7F4FA12
:101B400008BD0430C37F012B03D9013BC3770120BB
:101B500000E0002070470000002900D103498162A5
:101B6000011C2D312C300A70037070476C0000107E
:101B700008B5034A034B11681870181C884708BD44
:101B8000000500105804001070B5074C051C60716A
:101B90001420FFF7EDFF061C1B206571FFF7E8FF1F
:101BA0008019C0B270BDC04658040010014BD86007
:101BB0007047C046AC040010014B587199607047E3
:101BC000AC040010014B18687047C046AC0400100C
:101BD000014B18607047C046AC04001038B5184C73
:101BE000E06B04F017FD174903F0F8FF051C606C6B
:101BF00004F010FD011C281C03F01AFE231C3833CE
:101C00001978002902D0802215064019E064206C62
:101C100004F000FD0B4903F0E1FF051CA06C04F08B
:101C2000F9FC011C281C03F003FE231C393319782E
:101C3000002902D0802215064019206538BDC04613
:101C40000805001000606A4710B5104CE06B04F006
:101C5000E1FC0F4903F0C2FF231C38331978002937
:101C600002D080221306C018E064206C04F0D2FC7D
:101C7000074903F0B3FF211C39310A78002A02D04A
:101C8000802319064018206510BDC04608050010C5
:101C900000401C4638B5184C0021E56C281C03F0A8
:101CA00087FD231C3833002801D1002103E0802266
:101CB00010062D1801211970281C104904F080F914
:101CC00004F088FC256DE0630021281C03F070FD02
:101CD000231C3933002801D1002103E080221006A3
:101CE0002D1801211970281C044904F069F904F029
:101CF00071FC206438BDC0460805001000401C4639
:101D000008B5FFF7C7FF08BD034B044935331A7800
:101D1000900040587047C04608050010AC720000A3
:101D2000C3B210B5082B00D90820074CC2B2211C41
:101D30003531064B08705000C05A04F06BFC00228D
:101D400020633434227010BD080500102A71000091
:101D500008B506490B1C35331A78002A01D0013A20
:101D60001A7035310878FFF7DBFF08BD0805001051
:101D700008B5FFF7EDFF08BD08B506490B1C353364
:101D80001A78072A01D801321A7035310878FFF71E
:101D9000C7FF08BD0805001008B5FFF7EDFF08BD37
:101DA000F7B5FFF7C5F9194D01222B1CEE6A363342
:101DB0001A70301CFFF7D6F9071CA86A0190FFF7CC
:101DC000D1F9041C211C381C03F0F2FC002800D1BE
:101DD0003C1C2F6B201C391C03F0FEFC002813D088
:101DE000291C002336310B70301C391C04F0E8F834
:101DF000211C03F0F3FE391CE862019804F0E0F8BE
:101E0000211C03F0EBFEA862F7BDC04608050010D8
:101E1000F8B5FFF78DF9184C0123271CE66A256BEE
:101E200036373B70301C291C03F0D6FC002801D04B
:101E30000020387080210A06AF18301C391C03F0CE
:101E4000B7FC002803D0231C363300261E70A66A78
:101E5000291C301C03F0C0FC002803D0251C36359B
:101E600000202870301C391C03F0A2FC002802D08E
:101E7000363400212170F8BD0805001070B5041C2F
:101E8000FFF770F91049061C201C04F099F80F495F
:101E9000051C201C04F094F8311C04F091F8011C7E
:101EA000281C03F0C5FC041CFFF75CF9011C201C76
:101EB00004F086F8211C04F0B3F9054904F080F819
:101EC000211C03F0B5FC70BD83F9A23F7B81CFBE1E
:101ED0006666663E10B5094903F0AAFC0849041C71
:101EE00003F084FC002804D0201C064904F098F973
:101EF000041C201CFFF7C2FF10BDC046DB0FC93F0A
:101F0000DB0F4940DB0FC940F0B585B0041C01F080
:101F100003FB2379051C0C2B20D008D80A2B00D1F9
:101F2000A7E00CD8022B00D09FE00020A2E0122BEB
:101F300034D0192B4FD0112B00D096E01DE0201C7F
:101F400001F002FB0678051C0136F7B20770201C71
:101F5000FFF7A0FD002287420DD28AE0201C01F08D
:101F6000F3FA0378051C002B03D1201CFFF792FD28
:101F700028702A78013A2A707BE03F4F787115204B
:101F8000FFF7F6FD061C201C03F0AAF9011CB04265
:101F900000D2311CCCB27D71162017E0201C01F05C
:101FA00023FC011C201C01F017FC334EF0601120B3
:101FB0007571FFF7DDFD071C201C03F097F9041C69
:101FC000B84200D23C1CE4B275711720FFF7D0FD77
:101FD0002118C8B24EE0201C01F006FC011C201C98
:101FE00001F0FAFB244AD06011205571FFF7C0FDC3
:101FF000224B071C1E78A0680290002E02D1201CE4
:1020000001F03CF90299201C4A780E78039203F003
:102010006DF9F9B2031C884200D23B1C1648DFB2AE
:10202000457115200297FFF7A3FD071C201C03F044
:1020300057F9021CB84200D23A1C201CD7B201F05A
:1020400083FA0178201C01F0C7FB009501900399E9
:10205000301C029A3B1C02F009FA084D2E78002E23
:1020600007D0201C01F00AF903E0201C01F006F95A
:1020700000E0012005B0F0BD580400105604001027
:10208000481E38B5141C062862D803F0B1FA04279C
:10209000334D4F5C5C003220012A09D99621022A77
:1020A00002D0032A02D1C821480001E09620C000D6
:1020B000FFF76CFB274A012110880022FFF7D6FBAF
:1020C000254C012120880022FFF7D0FB234B012162
:1020D00018880022FFF7CAFB012008E00A20FFF75A
:1020E000FBFB1E4B1888211CFFF7ACFB0A20FFF7F7
:1020F000F3FB2DE0184D002A11D10A20FFF7ECFB6D
:102100000A20FFF7E9FB0A20FFF7E6FB0A20FFF7AA
:10211000E3FB0A20FFF7E0FB2888012101E0288883
:102120000021FFF78FFBD7E70A4BDBE70C48C368BA
:102130009907FBD58460CFE7094AD568AD07FBD581
:10214000013C9160E4B2002C02D019780133F3E72E
:10215000012038BD02000010040000100000001033
:1021600000000440F0B585B0041C01F0D5F92379D6
:10217000051C112B08D002D8022B6ED172E0122B55
:1021800013D0192B69D129E0384F78711520FFF74A
:10219000EFFC061C201C03F0A3F8031CB04200D285
:1021A000331CDCB27D71162013E0201C01F0D2F943
:1021B0002E4EF06011207571FFF7DAFC071C201C11
:1021C00003F094F8041CB84200D23C1CE4B27571D0
:1021D0001720FFF7CDFC2118CEB244E02448A768B1
:1021E0000178002902D1201C01F048F83A78201C1F
:1021F00002927B78039301F0ADF91C4EF060112040
:102200007571FFF7B5FC071C201C03F06FF8011C6B
:10221000B84200D2391C1520CFB27571FFF7A8FC67
:10222000061C201C03F05CF8021CB04200D2321CD9
:10223000201CD6B201F08EF900950190331C029853
:1022400003993A1C02F012F9094D0126287800285A
:1022500009D0201C01F012F805E0201C01F00EF856
:10226000061C00E00026301C05B0F0BD580400102C
:1022700056040010F0B587B0041C01F04DF9071C9E
:1022800020791038092800D9A4E003F0B1F9A80595
:1022900023A3A3A3A3A3A33E6221201C01F034F92E
:1022A000514E009015207771FFF762FC051C201C31
:1022B00003F016F8031CA84200D22B1C7771009F74
:1022C000DDB21620002F00D11E20FFF751FC40196F
:1022D000C5B285E06221201C01F016F9201C01F036
:1022E00039F9414EF06011207771FFF741FC009001
:1022F000201C02F0FBFF009C021CA04201D2694698
:102300000A78D5B277711F20DFE7384BA5681878B7
:10231000002802D1201C00F0B1FF6221201C01F036
:10232000F3F805902978201C03916A78009201F057
:1023300011F92D4DE86011206F71FFF719FC061C93
:10234000201C02F0D3FF031CB04200D2331CD8B2D1
:10235000029015206F71FFF70BFC051C201C02F08A
:10236000BFFF011CA84200D2291CCAB2201C019246
:1023700001F0F0F81C4D049020206F71FFF7F8FB7E
:10238000039E6F7183190598DEB2002805D01920CD
:10239000FFF7EEFB009BC21804E02120FFF7E8FBEB
:1023A00000994218D0B26E706E46A8706F71307985
:1023B0000821049F8A5D2871EF600620EA70FFF70C
:1023C000D7FB0A4D2E780125002E09D0201C00F0E5
:1023D00055FF05E0201CFFF7C5FE051C00E00125A8
:1023E000281C07B0F0BDC046580400105604001069
:1023F00010B50379041C142B08D10C21006801F0DE
:1024000099F8011E05D0201C884702E0FFF7AAFEBC
:1024100000E0012010BDF8B50379041C142B16D17F
:10242000C7680C21006801F085F86E21061C201C8D
:1024300001F06AF87621051C201C01F065F8311CBA
:10244000031C2A1C381CFFF787FB012001E0FFF763
:1024500089FEF8BDF7B5041C002101A802F0A0F820
:10246000002801D1002540E0019E6421301C03F0CA
:10247000DDF8019004F0CEF8206001F02DFC01257C
:102480002E2832D11A4B6F46FF335A7A0337013266
:102490005A7201A8391C02F083F80028E2D0019892
:1024A00004F0B8F83F78051C114912480F54002F6A
:1024B00007D0281C104903F091FB013F051CFFB217
:1024C000F5E7301C642103F0F5F8081C04F0A2F8CD
:1024D000011C281C03F0ACF9084903F07FFB011C28
:1024E000206803F0A5F901252060281CFEBDC04628
:1024F000C0010010330100000000204100007042C4
:10250000F8B50527061C781AC7B20B4800243023FB
:10251000864204D3361A0133B6B2DBB2F8E7074D70
:102520000A212B5503F082F8013480B2052CEED13C
:10253000002178196971F8BD10270000B001001062
:1025400070B5694C8023E27FD8054168101C0A38B9
:102550000D2800D9BAE003F04BF807194747B9B97D
:10256000B9B9B9B971293434FEF774FE0026802157
:10257000A67766776661A661CD05FF220B2004234E
:1025800020262277E077AB612E60A3E0082901D0F6
:1025900010290FD180200023C6050C222021A36121
:1025A000E277B16125786B00B36065E0082956D009
:1025B000102954D0202901D038290CD100F0AEFBCD
:1025C00088E040295AD0502958D0582956D0382967
:1025D000F4D04829F2D0A569444E0135A561B54231
:1025E00078D902F043FE75E0182901D0282920D1BE
:1025F0006668E26863698021B018CD05834207D31D
:102600006278002A01D0102028600821A9615FE0CB
:10261000B34202D2A168C85C02E022699E1B905DB1
:1026200001330826A860AE6163610023A3610D2217
:102630004FE02029C2D03029BED1BFE7FEF70AFE05
:10264000FF268021002326771520CE052025A3779D
:1026500063776361A361E0770422356034E0267814
:102660000022700001218025A261EE051623084397
:102670002022E377B060B261082225E06169E56855
:102680008026F305A94207D36078002801D01021E5
:10269000196008259D611BE04E1C0420AE4201D14B
:1026A000986100E0186020259D61162A07D08022DD
:1026B000D3059E682069465461690131616117251F
:1026C0008023E5770822DE05B26103E0012A01D00C
:1026D0000022E277E47F002C04D0012C00D030E708
:1026E000002000E0012070BD30040010204E0000EA
:1026F000F0B5234C85B0231C54331878002802D041
:10270000FFF7A2FA01E0FFF769FA211C98310E6881
:102710000C25281C7043271C3737231839781A1CBE
:10272000A03211714C229C33111984C984C3154BFA
:102730001F78002F1ED1B6B20236F20191B203AA61
:102740000B0A517010495026241813700E70012383
:10275000CD600A2002269C34FF254B704E608A60B3
:102760000C618F774F770D77C877FFF7E9FE074841
:10277000FFF7B2F8064800F063FA05B0F0BDC046B6
:1027800008050010A4000010300400108813000099
:10279000A078000007B5114801AA01780023137042
:1027A0005370002915D10E4B50201870012058701D
:1027B0009A6002200B4A5860D860997759770A20AE
:1027C000FF211A611977D877FFF7BAFE0648FFF79D
:1027D00083F8064800F034FA07BDC046A400001094
:1027E000300400105C05001088130000F474000031
:1027F00008B5031E03D0024801214363984708BD72
:10280000CC03001010B50C4C201C01F008F8162069
:1028100000F024FF201C002101F093F8002809D0CB
:10282000FFF7F0FF201C00F07CFF0028F8D1201CEF
:10283000FFF787F910BDC0466C04001010B5041CEA
:10284000002900D10849621D0023D3772377074B65
:102850000122201DC277216002C3DA77FFF7D2FF81
:10286000201C01F03FF910BD6C0000106C0400103A
:10287000816A002238B5041C914210D0031C2D330C
:102880001D7882621A70FFF7D9FF002D05D0201C39
:10289000013D01F03EF9EDB2F7E7012000E0081C30
:1028A00038BD0000F7B50A4C00252368201C0193B1
:1028B000A76AFFF7DDFFA84208D0261C2C36327825
:1028C000246E381C0199A04735700125281CFEBDD7
:1028D000CC03001008B50022011C131C0148FFF7AF
:1028E0003BF908BDCC03001037B50021051C02F0F0
:1028F0005FFF9A23174C5900002801D1002303E001
:10290000802210062D1801236354281C01A903F00E
:10291000FDFE051C019802F073FF9F214A00A052A2
:102920000D49281C03F04CFB231CFC3301A9D86380
:1029300003F0ECFE051C019802F062FF07496054A9
:10294000281C074903F03CFB02F05AFFFE34E087E5
:1029500037BDC046C00100100000704235010000C4
:1029600000007A44F8B5144C9A27E06CFFF7BCFFDE
:10297000124D7F00EA5D231C38339F261A707600C3
:10298000A85B0F496064C86B0E4903F019FB03F0A4
:1029900021FEE063206DFFF7A7FFEF5D231C3933B5
:1029A0001F70AD5B064AA564D06B064903F008FBB7
:1029B00003F010FE2064F8BD08050010C0010010EF
:1029C000BC02001000007A4408B5FFF7CBFF08BD39
:1029D00038B50949094A0B1C0D324C33FF3230CA55
:1029E00030C354310878002802D0FFF753F901E0D2
:1029F000FFF7B8FF38BDC04608050010C001001041
:102A000038B5134D9A230C1C5900695C221CFEF743
:102A100081FF9F225300E95AA01C0322FEF789FF81
:102A20007F2020210B4A6071A171A95CE01D022268
:102A3000FEF77FFF2E236372201CFE35E98F0A30DC
:102A40000322FEF776FF272500206573A07338BDAB
:102A5000C001001035010000F0B587B001930F1CD4
:102A60000199234C1318CD1B161CEDB2DAB200905D
:102A70000292201C111C2A1CFEF7D4FC019A00991A
:102A8000F019C3B2501A0393C3B20399201C1A1C45
:102A90000493FEF7C7FC009A201CB11ACBB2F61BB8
:102AA000191C2A1CF6B20593FEF7BCFC201C311C35
:102AB000049AFEF7B7FC019D201CEF19FFB20299A2
:102AC0003A1CFEF7AFFC0198009A8118CDB2201C89
:102AD00003992A1CFEF7A6FC201C05993A1CFEF758
:102AE000A1FC201C311C2A1CFEF79CFC07B0F0BD89
:102AF000A800001008B500F0FDFC63210922FEF7D4
:102B0000D9FF002803D0092802D9092000E00120BC
:102B100008BD38B5041CFFF7EDFF051C201C00F0B4
:102B2000E9FC2E21FEF7EEFF002285425241031CF4
:102B30005042184038BD08B500F0E1FC6121012287
:102B4000FEF7B8FF08BD0000F0B5174C071C207950
:102B500085B0411ACD1AEEB2301C0130C1B22068E6
:102B600003910296013AD5B2011C227A013BDEB2F2
:102B700031310A702B1C391C039A0096FEF7B1FD07
:102B8000029BE8190233C1B2DAB22068331C013764
:102B9000FEF7D6FDF9B2039F2068BC19E2B22B1CE8
:102BA000FEF7E0FD05B0F0BD0800001073B5094C5C
:102BB000151C2279061C20680132247A521A011C45
:102BC0003131D21A0C70D2B20093311C2B1CFEF79B
:102BD00071FD73BD0800001073B5134C134B201C1E
:102BE0001C6044300278124D1249A36B01200A7018
:102BF0002B60FEF7BDFF104801AD0022261D0460CA
:102C00002A706A70F67F002E0AD00C4924680123CE
:102C100010C1281CCB7700F00FFE281C00F0B6FE78
:102C20000220FEF7A5FF73BDCC0300109C0400102A
:102C30000005001056040010680400106C04001019
:102C400008B5FFF747FE08BD38B50B4B0C211A1C21
:102C5000983210681A1C414358184C329C3030C8C6
:102C600030C254331C78002C01D1044800E00448E1
:102C7000FFF7E6FF38BDC0460805001038730000B6
:102C800068760000014B18687047C046CC030010FE
:102C9000F7B5FFF707FE041E39D1FFF7F3FF1D4B11
:102CA000984235D0FFF7FEFD002830D11A4B181C92
:102CB00055300578002D2BD01E1C54363778013D39
:102CC000DA1994464832117812790137009250226D
:102CD000944462461278BC4601920327624617402C
:102CE00037700570002913D0082901D1986D02E0D2
:102CF000092904D1D86DFFF7EDFD0124D2E71C6B43
:102D0000002CFAD0181C009A019BA047F5E701247B
:102D1000201CFEBD6C000010CC030010094B0121EB
:102D2000DA7F80205A779977C20550681877042097
:102D30009061202090611020106008209061D97768
:102D40007047C04630040010F8B5124B041C1A1C22
:102D5000543216781D1C1F1C00685E356E37002E1D
:102D60000DD1FFF7C1FD291C0120FFF749FE606866
:102D7000FFF7BAFD301C391CFFF742FE08E00121C5
:102D80002A1CFEF7EDFD606800213A1CFEF7E8FD05
:102D9000F8BDC04608050010144B0C201A1C9832D0
:102DA000116810B548431C18A0342279181C37301C
:102DB00002700C1C181C7E3030340470181C7F30DC
:102DC000002A01D1027009E02F240470181C40323F
:102DD000803002701A1C8132002414700C20414390
:102DE0005B18181C9C30FFF7AFFF10BD08050010E2
:102DF00008B5074B1A1C98321168002901D10A2026
:102E0000106098331A68013A1A60FFF7C5FF08BDD1
:102E10000805001008B5054B98331A680132092AD5
:102E200000D900221A60FFF7B7FF08BD080500109F
:102E30000A4BDA7C191C302A05D1FF22313132339A
:102E40000A701A7009E0FF20282A03D00120022A04
:102E500000D103200B1C313318707047A8000010FC
:102E6000F7B553420F1C012659000190141CB01AEB
:102E7000CAB20092C6B2211C0020019A3B1CFFF787
:102E8000EBFD0025A54218D270B2002808DB009B9C
:102E9000013C0233D9B2CAB28E19E4B20092F6B242
:102EA0000135EDB2680001303318DEB2281C211C58
:102EB000019A3B1CFFF7D0FDE4E7F7BD10B50D4CC0
:102EC0006168201CFEF7C2FA61682070201CFEF7C2
:102ED000B4FA616860704822201C0023FEF71FFAD4
:102EE000231CE07461683833201C1722FEF717FAA0
:102EF00010BDC046A800001010B50C1CFEF7D0FD98
:102F0000064B4000C25C01210A43C2541B185C708E
:102F1000034C606BFFF76CFC10BDC046DC04001076
:102F2000CC030010F7B50092002820D0104D552298
:102F30002C1C5319543426789C461B7803229F1965
:102F40003A40AD182F1C48373870684639710178FF
:102F500050352970032B07D90136F6B22670032E9F
:102F600005D90023237002E0013364462370F7BDC6
:102F7000CC03001070B51F4C0025231C4133201CCE
:102F80001D704230211C221C231C057055311A482B
:102F9000543243331D700D70184B19491570261C9F
:102FA000184A44362063281C19602266A1633570D4
:102FB000E563FEF7DDFD2620FEF7DAFD12493070ED
:102FC000261C201C4736A165E1653570FFF736FCED
:102FD000FFF758FE0D49884204D01320291C2A1CF3
:102FE000FFF7A0FF00252C3425700948FFF700FCEF
:102FF00070BDC046CC030010513C0000000500101D
:103000006949000027110000F47400006C000010F2
:103010005152000070B53A4C636B002B6ED0201CEF
:1030200000219847031E542B03D1221C4332012157
:103030001170251C43352E78002E03D0002801D1B5
:1030400028705523201C221C413042324025017833
:1030500012782B4202D0AB43D8B244E0261C47364C
:10306000307803284AD802F0C3FA020E1B2C002B3A
:1030700044D0251C221C463503214532137029708B
:103080004734012336E0221C453216789E422FD168
:10309000231C46331878002818D0013818702DE00A
:1030A000002B05D1211C463103230B70473421E04E
:1030B000201C453005789D421AD1181E14281DD1B8
:1030C00011E0261C45363078984202D1473402235D
:1030D00010E0261C46363578002D07D14734257080
:1030E000142800D11520FFF71DFF07E0002B03D0A7
:1030F00047340023237001E0013D357070BDC046A8
:10310000CC03001038B5051CFFF7F4FC041C281C88
:10311000FFF7FFFC002801D00134E4B2201C38BDC9
:1031200008B5FEF7FEFCFFF7EDFF08BD70B5051C06
:10313000FFF7F6FF061C281CFEF7EEFC741E201A93
:10314000C6B2281CFEF7EDFCFFF7E3FC002803D015
:10315000864201D3013EF6B2301C70BD70B5041C2E
:10316000FEF7DFFCFFF7D5FC051C002085420CD0E4
:10317000201CFEF7D1FC061C201CFFF7D1FF0138F4
:10318000801BC1B24A1B5042504170BD38B5041C6F
:10319000FEF7C2FC051C201CFFF7C2FF401B454286
:1031A000684138BD10B50C1C00F0A4F9211CFEF7D5
:1031B000A9FC10BD08B56321FFF7F4FF002800D17A
:1031C000012008BDF7B5061C0D1CFEF739F801906B
:1031D000301CFFF7EFFF0024071C301C00212A1CC5
:1031E00000F00EFA231C844200D2031CED19019852
:1031F000EDB2DCB28542F0D3201CFEBDF7B50C1C4D
:10320000061CFEF71DF8071C301CFFF7D3FF4443D4
:10321000E4B22018C1B201910025019B9C420ED05E
:10322000BC4209D2221C301C012100F0E9F9021C29
:10323000A84200D22A1CD5B20134E4B2EDE7281C22
:10324000FEBD38B5051CFFF7B5FF041C281CFDF7B3
:10325000F7FF0123A04204D90133001BDBB2C0B247
:10326000F8E7181C38BD08B5002806D0FEF759FC51
:1032700000F040F96621FEF745FC08BDF8B503797A
:10328000041C102B09D0192B0CD0052B40D14179EF
:10329000856800F039F9287029E0722100F034F9CE
:1032A000041C36E000F038F9061C2068A56800F020
:1032B000A2F9071C206800F099F96179012909D861
:1032C0002C786A78144B18715C709A70DF705E719C
:1032D00008200AE002290CD12C780F496D7808717A
:1032E0004C708D70CF704E710920FEF741FC0124A7
:1032F0000FE0012403290CD1074B29786A78187153
:103300000C2059709A70DF705E71FEF731FC00E09E
:103310000024201CF8BDC0465804001010B50379E5
:10332000032B09D00F2B04D0022B0ED1FDF78DFFFC
:103330000DE0FFF700FC0AE0026884684179101C88
:1033400000F0EFF82060012001E0FFF797FF10BDCB
:1033500008B50379102B02D0FFF790FF00E00120A1
:1033600008BD0023CA5CC2540133042BFAD1704754
:1033700010B5034C4118201CFFF7F3FF206810BD67
:10338000BC04001010B5034C011C201CFFF7E9FF22
:10339000206810BDBC0400101FB56B4619710021D8
:1033A00003910090FFF7EEFF021C6846904705B0BE
:1033B00000BD000010B5044C89004118201CFFF727
:1033C000D0FF206810BDC046BC040010034B002293
:1033D0001A605A719A60DA607047C046AC040010F7
:1033E00008B5FFF7F3FF08BD144B10B55A69013259
:1033F0005A61134B9C79002C1ED1D979002902D037
:10340000242819D1DC719A88FF24013291B200225C
:103410008C42524152420A4019888A4204D101200A
:103420009871D8715A8806E0242801D19C885C8064
:1034300099885C1820729A8010BDC046080500105B
:10344000C00100100120704710B5041CFFF7C8FF31
:10345000201CFEF7ABFB201CFEF763FBFEF7B8FB5E
:1034600010BD0000F0B5224E041C306885B0002865
:103470003BD02378242B31D0252B2FD00F2B31D1CB
:10348000A0786278029060790392A779FEF7A8F895
:103490003179029B051CCA1AD0B202903068029B97
:1034A000F679011C31315A1B0E70D2B20095039986
:1034B0002B1CFEF716F9012F01D0032F12D1043D6A
:1034C000029EEBB2039D0A4F023E0235F21A3868A3
:1034D000E9B2D2B20093FEF7EDF803E06079FEF7AF
:1034E0007FF802E0201CFDF791FE05B0F0BDC0465C
:1034F0000800001008B50421FFF73AFF08BD08B521
:103500000068FFF7F7FF08BD10B50C1CFFF7F7FFC9
:10351000211CFEF7F7FA10BD08B56621FFF7F4FF8E
:1035200008BD10B50C1C0C21FFF722FF211CFFF772
:1035300041FF10BD10B5034C4118201CFFF711FFCF
:10354000206810BDBC04001008B500680821FFF712
:10355000F1FF08BD08B500680821FFF7EBFF08BDC3
:10356000F8B5FEF7DEFA041CFFF70CFF0D4B0E4D0D
:10357000984210D10821201CFFF7DCFF0021061C17
:103580000A1C201C2F68B04787420AD02A68201CDA
:103590000121B04705E00821201CFFF7CBFF296877
:1035A0000160F8BD79430000C004001038B5FEF793
:1035B000B8FA041CFFF7E6FE0A4B0B4D984209D1FE
:1035C000201C0821FFF7B6FF0021031C0A1C201C49
:1035D000984704E0201C0821FFF7ACFF0068286032
:1035E00038BDC04679430000C004001008B5112161
:1035F000FFF7D2FE08BD08B51221FFF7CDFE08BDCA
:1036000008B5002905D0111CFFF78BFFFFF7EEFF6F
:1036100004E0111CFFF785FFFFF7EDFF08BDF7B5CC
:103620000024061C0091171C0193251C009B9D4241
:1036300012D0391C301C2A1CFFF7E2FF0199002927
:1036400002D00019C4B204E0021CA04200D2221C25
:10365000D4B20135EDB2E9E7201CFEBD10B5044C33
:1036600020712068FFF78EFE031C201C984710BDB8
:10367000AC04001038B5031D041CD87F012802D902
:1036800021188D7E00E00025FFF7AAFE201CFEF722
:103690008DFA201CFEF74DFAFEF79AFA281C00213D
:1036A000FEF78AFA0B20FFF7D9FF38BD08B5031DD6
:1036B000D97F012905D9FFF7C7FE0F20FFF7CEFFFD
:1036C00000E0002008BD10B5031D041CD87F0228AF
:1036D00004D9201CFFF7EAFF002801D1012004E0F3
:1036E000201CFEF72EFA0028F3D110BD08B5FFF715
:1036F000ABFE0220FFF7B2FF08BD70B5041C261D0B
:103700000D1CFFF7A1FEF17F013988002118281C4C
:10371000FEF752FA0320FFF7A1FFF37FE218957638
:1037200070BD38B5031DDD7F041C012D01D80020BC
:103730000DE0FFF7DBFF023DE9B26218137F0133B2
:10374000D9B28142F3D2201CFFF7D7FF012038BD48
:1037500010B5031D041CD87F012809D9201CFFF7D0
:10376000C5FF411EC9B2201CFFF7C7FF012000E0C2
:10377000002010BD08B5031DD97F012904D90021FF
:10378000FFF7BBFF012000E0002008BD08B5031DC6
:10379000D97F01290CD90239CAB28318197F0022B6
:1037A000914206D00139C9B2FFF7A7FF012200E01C
:1037B0000022101C08BD000010B5034C4118201C4D
:1037C000FFF7CFFD206810BDBC04001008B50068ED
:1037D0001021FFF7F1FF08BD10B50C1CFFF7F6FF35
:1037E000031C201C984710BDF7B5071CFEF752F9C3
:1037F000002501902E1C2C1C019B9C420DD0211CED
:10380000381CFFF7E9FF02F0A9FFC0B2864201D2DF
:10381000251C061C0134E4B2EEE7281CFEBD10B5E1
:10382000041CFFF7DDFD201CFEF7C0F9201CFEF78D
:1038300080F9FEF7CDF910BDF8B5214D061C2B1D02
:10384000DA7F012A1BD91F4801680C1DE07F002484
:10385000824215D8571EFBB2013BDBB2EF18CC18E1
:103860003F7F247FA7420AD1002BF5D10124824259
:1038700006D10531CC7F631E9C41023400E0002458
:10388000281CFFF7CCFF002C11D1FEF79BF90E4A44
:103890001168CB6B98420AD1281DC77F012F05D92B
:1038A000ED194031AA7E09788A4200D10224311CE8
:1038B000201CFEF781F91920FFF7D0FEF8BDC046A5
:1038C0006C040010680400109C04001008B5FFF799
:1038D000A6FF1520FFF7C2FE08BD70B5051D041C2C
:1038E000EE7FFFF7F0FE002808D0201CFEF729F934
:1038F000002803D0EB7F012B02D8EE7700200AE0EE
:10390000201CFFF7F3FE002801D1EE7703E0201C16
:10391000FFF7DCFF012070BD08B5FFF780FF102026
:10392000FFF79CFE08BD08B5FFF779FF0F20FFF7F2
:1039300095FE08BD08B5FFF772FF0220FFF78EFE67
:1039400008BD70B5051C0E1CFFF7F4FF00280ED152
:10395000041C002E17D0281CFFF761FF201C291C17
:10396000FEF72AF91420FFF779FE041C0BE02B1D4B
:10397000DA7F0024052A06D80132211CDA77281CB8
:10398000FFF7BBFE0124201C70BD0000F0B585B020
:10399000011C022203A802F0AFFE384C6D460B3525
:1039A0000021201C2970FFF7CCFF002864D0231DC4
:1039B000334ED87F371C30722A20FEF7D9F8201CEE
:1039C000261DFFF741FDF17F6218907E03A9FEF7E7
:1039D000F3F80420FFF742FE00283BD0201CFEF73E
:1039E000A8F8FEF7F5F8291C6420FEF7E5F8052095
:1039F000FFF734FE0F20FFF731FE01902148F37FDF
:103A00000268161DF17F0026994207D3023BE01899
:103A1000D3181E7F027F961B73425E411A490878B5
:103A2000002803D168460E30FFF706FF2B78012BE4
:103A300004D0019A1643F6B2002E03D068460E3029
:103A4000FFF7A4FF10490878002803D068460E301D
:103A5000FFF7F2FE201CFFF764FE231DDA7F3A72A7
:103A6000002803D02C20FEF783F8A8E72B20FEF7D0
:103A70007FF8201CFEF765F805B0F0BD6C0400105F
:103A800058040010680400105604001010B5041CFF
:103A9000201CFFF74FFF002809D0201CFFF743FF31
:103AA000002804D0201C0021FFF74BFFF0E710BDD9
:103AB00010B5041C201CFFF734FE002804D0201C85
:103AC000FFF7E4FF01200CE0201CFFF7EFFD0028CA
:103AD00001D1002005E0201CFEF733F80028E9D1D1
:103AE000F7E710BD10B5041CFFF744FE201CFFF7DC
:103AF000CDFF201CFFF710FF002805D0201CFFF78A
:103B0000D7FF0028F5D103E0201CFFF7DFFE0120DE
:103B100010BD10B5041C201CFFF7CAFF002803D1FC
:103B2000201CFFF7DFFF08E0201CFFF7F5FE002850
:103B3000F1D1201CFFF7CAFE012010BD10B5041CF6
:103B4000201CFFF7F7FE00280CD0201CFFF7EBFE2F
:103B5000002807D0201C0021FFF7F3FE201CFFF7F0
:103B6000F7FDEDE710BD10B5041C201CFFF70EFE9D
:103B7000002804D0201CFFF7E1FF01200CE0201CEE
:103B8000FFF794FD002801D1002005E0201CFDF77F
:103B9000D8FF0028E9D1F7E710BD10B5041C201CA0
:103BA000FFF7E1FF002810D1201CFFF7D1FD201CFA
:103BB000FFF7C4FF201CFFF7AFFE00280AD0201C2F
:103BC000FFF7D1FF0028F5D108E0201CFFF7A4FE85
:103BD0000028E4D1201CFFF779FE012010BD10B5AC
:103BE000041C201CFFF79FFE002806D0201C00218B
:103BF000FFF7A7FE0028F4D100E0012010BD10B5AA
:103C0000041CFFF7ECFF0023984218D0201C012170
:103C1000FFF797FE002804D1201CFFF754FD002376
:103C20000DE0201CFFF778FE002804D0201CFFF7D1
:103C300070FF0028F0D0201CFFF748FE0123181C5D
:103C400010BD08B5FFF7EBFD0A20FFF707FD08BD23
:103C500010B5041C481E04281DD801F0C9FC031C23
:103C600010141800201CFFF7ECFF002803D0201CC4
:103C7000FFF700FD10E0201CFFF7C1FF0CE0201C47
:103C8000FFF72BFE08E0201CFFF743FF04E0201C99
:103C9000FFF783FF00E0002010BD0000F8B50A2701
:103CA000061C781AC7B20A4800243023864203D380
:103CB0000133361ADBB2F9E7064D0A2163550134A8
:103CC00001F0B4FC0A2CF0D10021E819A972F8BD6A
:103CD00000CA9A3BA0040010064B19885A889142EA
:103CE00002D1054A10B27047181CFF30417A5B18A8
:103CF0001A7AF7E7C0010010FFFF0000F7B5144B78
:103D000099225000195C172913D98D1EECB2013489
:103D1000E5000022A0269C187700E0194934FF3402
:103D20000832C0CCC0C0AA42F4D1992501396A003A
:103D30009954992148001C5C8622261C2836F700DD
:103D40005100DD195A180134C0CAC0C51C54F7BD52
:103D5000C0010010F7B50E4C071C1C20151C0E1CD2
:103D600001936271FDF704FFC019C7B21D20657190
:103D7000FDF7FEFE019A8119002306206770657128
:103D8000A170E3702371E260FDF7F2FEF7BDC0465B
:103D90005804001010B584780278031C5978101963
:103DA000C4B29C7000208C420BD21879DC780130B0
:103DB000A2181871D0B2884201D30139C8B2D870A4
:103DC000012010BD02780023013A8370C270037194
:103DD000704710B500238C680521A04710BD10B5B1
:103DE00000238C680221A04710BD10B500238C6809
:103DF0000321A04710BD00000B4A70B51568061CD2
:103E000008230A4998004158002014688C4206D2C1
:103E1000B34202D9013BDBB2F3E7156070BD01305C
:103E2000641AC0B21460F0E7C0040010480000102B
:103E300070B5074C051C60711520FDF799FE061C36
:103E40001A206571FDF794FE8019C0B270BDC0469E
:103E500058040010F0B5037985B0112B71D0122BE6
:103E600000D188E0042B00D0A0E005684279846886
:103E7000281C0292FFF79EF9071C281CFFF7E1F9A6
:103E800003900298002601900199B94206D3019A45
:103E90000136D31BD8B20190F6B2F5E7311C281CCD
:103EA000FFF7ACF90121071C029A281CFFF7A8FBB9
:103EB00001373B1ADAB2013603995008F6B2E070C6
:103EC0008E4217D2311C281CE778FFF797F9C319E7
:103ED000DFB2E7702220FDF74BFE01363A1A039855
:103EE000D7B2F6B2E7708642ECD32220FDF740FE4F
:103EF000C119E170E3786278019ED718E770002756
:103F0000A770BE4217D0391C281CA678FFF75AF9B3
:103F10008019A0702320E678FDF72AFE0137019A68
:103F2000311AFFB2E1709742EDD12320CDB2FDF7F7
:103F30001FFE4319E3702078A6788119A170012033
:103F400036E007680026381CFFF77BF9341C051C97
:103F5000AC4208D0211C381CFFF750F901348219FB
:103F6000D6B2E4B2F4E72220FDF702FE013CE7B24C
:103F70007843311A18E006680025301CFFF71AF95B
:103F80002C1C071CBC4208D0211C301CFFF71AF95E
:103F900001344519EDB2E4B2F4E72320FDF7E8FD62
:103FA000013CE4B26043291AC8B201E0FFF7B6F958
:103FB00005B0F0BDF0B5041C85B0C068FFF753F93B
:103FC0002579061CA81E172800D90CE101F024FB56
:103FD0003C010B010B010B010B010B010B010B0150
:103FE0002200280048000B010B010B011C006A0095
:103FF0006E000B0118000B010B010B010B0172008D
:10400000A068FFF76AFCECE0E068FFF7A7F8431E42
:1040100098411AE1E068FFF7B9F84342584114E1CA
:10402000E668301CFFF79AF8002800D0D9E0301C71
:10403000FFF7BCFA301CFFF779F8051CFFF7DCFE30
:10404000834BAC00834F1A59082802D83B68D2181A
:1040500023E039680138C0B28D1A4243AA1A1CE025
:10406000E668301CFFF77AF8002800D0B9E0301C71
:10407000FFF79CFA301CFFF759F8041CFFF7BCFE51
:10408000734AA100734F5358002802D03968CA1AE6
:1040900003E03868DC001D182A19301C3A60FFF76D
:1040A0005FFA9EE0301CFFF7C3FECEE0301CFDF748
:1040B0006BFDCAE0E168202368468381081C0091FB
:1040C000FDF72AFD071C0098A568FFF75FF8002898
:1040D00020D06479002C00D183E02B78301C009331
:1040E000FDF752FD3A1C424300996D78881AC4B21C
:1040F000301CFDF749FD4743301CFFF799FE564B36
:10410000FFB218710E205C709D70DF705E71FDF75C
:104110002FFD66E0E068FFF721F8002803D02E238A
:10412000684603730AE0E068FFF740FAE068FEF7CC
:10413000FDFFFFF761FE6A463030107347490F7884
:10414000002F0BD02A78E06800926F78FFF78BF889
:10415000391C021C03AB0098FFF7FCFD6379022BAE
:1041600014D168782F780090301CFDF70DFD019078
:10417000301CFFF75DFE6A46374B117812791871D3
:104180005F709970DA705E710B2015E0032B16D109
:1041900068782F780090301CFDF7F6FC0190301CF9
:1041A000FFF746FE69462C4B0A78097918715F7053
:1041B0009A70D9705E710D20FDF7DAFC02E0201CC8
:1041C000FFF75CF8254E307800280AD1E0682E7899
:1041D0006D78FFF748F8291C021C03AB301CFFF771
:1041E000B9FD012031E0303DEDB2E468092D2BD856
:1041F000201CFEF7B3FF002826D1201CFEF7C6FFC7
:10420000002821D1201CFFF7D1F9201CFEF78EFFDA
:10421000061CFFF7F1FD0F49031C0A689D4206D2F8
:104220000B48B7003F58013BD21BDBB2F6E79D427B
:1042300006D90748B7003F580133D219DBB2F6E779
:10424000201C0A60FFF78CF9002005B0F0BDC046C5
:1042500048000010C004001058040010560400105C
:10426000F7B5041CFFF758F9051C20790238172808
:1042700078D801F0BDF90C182158777777777777E0
:104280007777771C773F4B7777777777775F2068FB
:10429000FEF738FF6121071C201CFFF735F90028C5
:1042A00064D1013730E0A668314B336020E0201C38
:1042B0006121FFF729F958E0A768281C3A78009295
:1042C0006679FDF761FC4643F0B22A4E0190182052
:1042D0007571FDF74DFC009B019AC1185018B8701C
:1042E000A468192067787571FDF742FCC519E5705F
:1042F00001273BE0281CFFF79BFD1E4B061C5D7150
:104300001620FDF735FC8719FFB22FE02068FEF775
:10431000F9FE071C281CFDF737FC47431548FEB281
:1043200045711720EDE76579642D1BD1A168012740
:104330000F701BE06379012B14D12068A768FFF789
:104340005AF9061C2068FFF751F90A4C39787A7837
:1043500020710A206170A270E67065710027FDF778
:1043600007FC03E0201CFEF789FF071C381CFEBD7C
:10437000400000105804001008B5FFF771FF08BD99
:10438000F0B5856885B02E78041C301C0F1CFDF735
:1043900055F90090301CFDF753F90099039001295D
:1043A00002D0FF23029301E00F200290281CFDF7AA
:1043B00039F9061C281CFDF733F90190281CFDF77C
:1043C00033F9602F04D9002802D0281861260BE0A9
:1043D000281CFDF72EF9402F04D9002802D02818F8
:1043E000412601E0281C1130019A974235D8019DE1
:1043F000AE4232D80378FF2B01D1013027E0BE4214
:104400001FD1009E671C002E01D0022E09D1E37738
:104410004278FA77C3782377057965774779A77764
:1044200022E00F211A1C0A40023A1B09A277637787
:1044300045782940F9772F09E77786783109217780
:1044400012E08178029A039D1140401840190199A9
:104450008E4202D00136F6B2CCE70020621C2077F3
:10446000E077D0776077A07705B0F0BDF7B501931E
:1044700008AB0F4C1D78071C18200E1C00926571AC
:10448000FDF776FBC019C7B219206571FDF770FB07
:104490006B4681196A46187916786571099D2071F5
:1044A00006206770E670E560A170FDF761FBF7BD5F
:1044B00058040010F7B5051C0E1C01920020019F46
:1044C0003C78002809D1FF2C46D0281C311C221C26
:1044D000FFF77FFC00283DD143E0FF2CF5D0FE2CF8
:1044E00041D0EF2C36D8DF2C06D90F222240281CD1
:1044F000311CFFF774FC2DE0CF2C06D90F2222408F
:10450000281C311CFFF771FC24E0BF2C18D90022B5
:10451000131C0421B768281CB8470F210C40220146
:104520000232FA24D3B2A4005C43201CFDF7D4F974
:10453000281C042101220023B768B847201C07E08B
:10454000BD2C07D863B2002B04DBFA208000604347
:10455000FDF7C2F9002000E001200199013101912D
:10456000ADE7002000E00120FEBD000008B5FFF728
:10457000B3FB002810DB09490B1CFF335B7A5A1C84
:1045800080B2D2B2202803D9FF314B72012004E05F
:104590008B18187A131CF2E7002008BDC001001028
:1045A00038B50C1C051CFFF7E1FF0022111C9042DE
:1045B00025D0944200D022702A60FFF78DFB00289E
:1045C0001ADB031C303B99B2092917D82A680A2341
:1045D000534300B2303B19182960002C02D02378D5
:1045E00001332370074A101CFF30417A0131CBB2EE
:1045F0004372D218107AE4E7002100E00121081C80
:1046000038BDC046C001001037B5041C002101A808
:10461000FFF7C6FF002801D1002129E0019801F031
:10462000F9FF2060FFF758FB01212E2820D1114B04
:104630006D46FF335A7A033501325A7201A8291C9C
:10464000FFF7AEFF0028E7D0019801F0E3FF2D78D7
:10465000011C002D07D0081C074901F0BFFA013DDD
:10466000011CEDB2F5E7206801F0E2F801212060BD
:10467000081C3EBDC001001000002041F0B585B00F
:10468000061C0C1C151C03930F2A51D0152A0CD0A4
:104690000A2A67D1012102220023A768B847301CEB
:1046A000211C7B4AFFF706FF5CE04F68794A0297BE
:1046B000FFF700FF3A7950214B4250001843C2B235
:1046C000211C301CFFF785FB301C211C0122FFF749
:1046D00086FBBB687A79301CA76806210193B8472E
:1046E000301C211C0022FFF780FB211C301C694A72
:1046F000FFF7E0FE029F50213A794B425000013013
:104700001843C2B2211C301CFFF763FB301C211C74
:104710000122FFF764FB7A79BF68301CBB180621C1
:10472000A768B847301C211C0022FFF75EFB19E088
:104730000122FFF75AFB301C211C0022FFF74FFB20
:10474000211C301C8122FFF744FB03990878211CAF
:104750008208301CFFF73DFB301C211C0022FFF7B4
:1047600044FB90E06468322D5DD00BD8152D68D0E5
:10477000172D76D0142D00D085E06579A6686A00E3
:10478000B01855E0462D77D0472D79D03B2D7AD102
:10479000039EF0787378012807D01A1C032807D1EC
:1047A0001D1C083D1A1CEBB202E0191C0831CAB2EC
:1047B0000025E6782F1C9E426F41A678391C2F1CDD
:1047C000B2426F419A4292413E1C53420F1C1F431A
:1047D000374019403E1C0E43AE4254D003998F78A7
:1047E000032804D800F004FF0A020508012500266A
:1047F00006E00025FF2603E0FF25F8E70025012657
:1048000078B2002803DA201C0399FCF777FD039A9D
:104810007F0013785078F118FFB22B181170537085
:10482000002FEDD12FE0201C0399FCF767FD2AE053
:104830000021317001368642FAD1201CFFF7C2FAFE
:1048400021E0201CFFF7A6FA002398421CD06279D1
:10485000A068510043180027077001309842FAD130
:1048600011E0039F00233B70A6787E706579013DBF
:10487000BD70E478FC7006E06679039A167002E079
:104880006478039D2C700123181C05B0F0BDC04650
:10489000E472000006730000F7B5041C00790238CA
:1048A00010285AD800F0A4FE5D09105959595959D9
:1048B00059595959595D5951540020680821A66821
:1048C000FEF738FE30604CE0201CA668FEF717FEAD
:1048D0007C21FDF71CF9051C002085420DD001212B
:1048E000201C00F043FD0121071C201C00F030FDBE
:1048F0003B1AD8B2022D00D04008F070A168201CED
:104900000191FEF7FCFD2D21FDF701F90025061EA2
:10491000AE420DD0291C201C00F028FD291C071CCC
:10492000201C00F015FD3A1AD5B2022E00D06D08F9
:10493000019B9D70A068C67841788F19C770A468E4
:10494000A2782578AB18A3700BE0201C012101E0B0
:10495000201C002100F00AFD04E0201CFEF78EFC64
:1049600000E00120FEBD0000F0B5071C00788FB00C
:1049700008381E2800D99EE000F04EFE1F003A00C5
:104980009D0068009D009D0070009D009D009D00A1
:104990009D009D009D009D0078007F008D00980087
:1049A0009D009D009D009D009D009D009D009D001F
:1049B000B302B3029D009D00B3027879CA4C41074F
:1049C0000DD5E37A7A78DE019D18E8B2F31AFD7806
:1049D0005A005619B978F2B23B79FEF7B5F8617909
:1049E000A07A637AE171984265D2A279E27162E0BD
:1049F0007A79BD4C52071ED5A379E3717D78BE78D4
:104A0000FA783B7901350136023A023BE8B2F1B25D
:104A1000D2B2DBB2FEF7CAF8E57A7978EE01721B02
:104A20006818FD7853005E19C0B2B978F2B23B79CC
:104A3000FEF78AF807E0A079E0717878B978FA781B
:104A40003B79FEF7B3F8617AA17234E0A64EB179F2
:104A5000F1717878B978FA783B7904E03D79787823
:104A6000B978FA786B08FEF7A1F824E07879042386
:104A7000184000D136E2032034E29B4A7979107B5A
:104A8000490705D5D47A00194700033701E0607B58
:104A90004700F8B226E27C79934B610704D5DD7AB2
:104AA0001E7BAF190137F4E7187B1BE278794107C9
:104AB000CA0F500016E28C4C2668002E00D110E27E
:104AC000387803382B2800D906E200F09BFDCD0092
:104AD0002C0036003D0072000502050205020502A9
:104AE000CB00CB00050205024401000119012D0194
:104AF0002801330105020502050205020A020A0225
:104B00000A020A020A02E0FF88010A0205020502FF
:104B1000050205020502D700400142018A018D010C
:104B20008D01050295012279BB787978D01AC2B23D
:104B30003B79301CFCF704FECEE17878B978FA783E
:104B40003B79FEF733F8C7E1E279311C31317D78EA
:104B50000A70787903231840644A81008958301C10
:104B6000FCF730FD2068624E46627B791A070BD550
:104B7000FE78002E08D0F96800F032FC351AE8B251
:104B80007A7841088B18DDB22679B978701C421A00
:104B90002668F868D3B20178301C0393FFF7F0FB66
:104BA0002068747F039A2D1BE9B2FB6800F0A1FC1A
:104BB00092E1E279311C31317D780A7078790323F2
:104BC00018404A4A81008958301CFCF7FBFC2668D3
:104BD000474870627B7919071BD5F9780491002941
:104BE00017D0FD6803950025039A1178002909D094
:104BF000301CFFF7C5FB307F03992B180131DDB264
:104C00000391F1E7049E7B78721BD0B24508E91846
:104C1000CDB22679F86803962668BA780178301CF8
:104C20000492FFF7ADFB039A737F049E0132901B41
:104C30002668E91ACDB2C3B2716A301C0393FC68CE
:104C40008847039A1018C3B203932378002B00D12E
:104C500042E1291C301C039A00F000FC2D18EDB233
:104C60000134F2E76579E5712479BD787978621BC2
:104C7000D2B2FB78301CFCF775FD2DE17D79032164
:104C80001A480D40F968AF003950301CFCF79AFC07
:104C900026686D21301CFFF773FB002801D0367F9A
:104CA00000E0061C2468134F201C30217E55FFF7BE
:104CB00067FB002801D0237F00E0031C0E4A71B27D
:104CC00058B25355814200DB0BE17B5509E17D79F8
:104CD00003221540054BA900C958301CFCF772FC93
:104CE0002068F968054A17E008000010C4040010A5
:104CF00063100000D8040010D40400105F100000FE
:104D00007A7903231A40784891000958301CFCF73F
:104D100059FC2068F968754A00F073FBE2E07C7981
:104D200003202040724D03E079790320714D084043
:104D3000285CD7E07D7903276B4B3D40AA00301CEF
:104D4000D158FCF73FFC26682C363078CAE0307822
:104D5000C8E07078C6E02579BA783879AD1A247A37
:104D60002A1A351C313501327978FB78D2B22C7091
:104D70000090301CFCF7B5FC3E79311C0239CBB2F7
:104D800004960393FE797D7A1C1CAE4208D9181C48
:104D90006843311C00F098FCC4B2002C00D10124FF
:104DA0003A7A0023AE4208D90398731B011BC8B29C
:104DB0005043D9B200F088FCC3B2BD78049A7E7823
:104DC000511901360139FF78F0B20E1BF31A023F78
:104DD000D9B2FAB2231CFDF7E9FE012082E0607B24
:104DE00080E0397A617277E03E7AA37A6672B342E4
:104DF00072D3FF20A0726FE0E279311C31317D78EF
:104E00000A702479BB783979E01AC2B2541A013495
:104E1000E3B207930591F878FA6803900492009141
:104E2000301C291C079A039BFCF716FC002853D062
:104E3000039903980731C2080735CCB2EDB2D1000F
:104E4000E3086C18073C0C930895E3B2002509921F
:104E50000D93069568461822145C079905980B195E
:104E6000DDB20B95A04237D00024E2000398D3B204
:104E70000899C21ACD18D3B2E9B2072B09D9049800
:104E80000223025D301C00920B9AFCF74CFA0134AD
:104E9000EBE7039A049C09990720024065180A92DF
:104EA000002A07D1049C069D0C9B0135E118049152
:104EB0000695CFE72D7800240D9B1919C9B2EB0791
:104EC00003D5301C0B9AFCF7ADFA01340A9AE0B214
:104ED0006D088242F0D1E5E7074E381C3469A047DF
:104EE00000E000200FB0F0BDC40400105B10000013
:104EF000D4040010D80400100800001038B5051CB8
:104F0000FFF734FB0024A04209D0FEF7E5FEA842DB
:104F100005D1044B0124FF335A7A01325A72201C06
:104F200038BDC046C001001038B5041C012907D99E
:104F300001392220CDB2FCF71BFE4543641BE4B2CD
:104F4000201C38BD10B5FCF7ABFD064A4300995C48
:104F50000020CC0705D5D0184078FCF761FC43420F
:104F6000584110BDDC04001010B50120FFF7EAFF26
:104F7000002801D0012433E00220FFF7E3FF0028DE
:104F8000F8D10320FFF7DEFF0324002828D10420F6
:104F9000FFF7D8FF0424002822D10520FFF7D2FF15
:104FA000052400281CD10620FFF7CCFF062400288A
:104FB00016D10720FFF7C6FF0724002810D10820CC
:104FC000FFF7C0FF082400280AD10C24201CFFF79B
:104FD000B9FF002804D10134E4B2122CF6D1041C2C
:104FE000201C10BD10B56821041CFCF78BFD0028A7
:104FF0000BD1201C4821FCF785FD041C2920FCF75F
:10500000B7FD231C43439804000E10BD08B5FEF7FE
:1050100071FAFFF7E7FF08BD10B57721041CFCF714
:1050200071FD00280BD1201C5721FCF76BFD041CDF
:105030002820FCF79DFD231C43439804000E10BD5F
:1050400008B5FEF757FAFFF7E7FF08BD10B50C1CCF
:10505000772A02D1FFF7F4FF07E0682A02D1FFF7B1
:10506000D5FF02E0111CFEF79DF8031CA04200D200
:10507000231CD8B210BDF7B50379112B42D0122BE7
:105080004ED0042B68D1056841798468281C0191B1
:10509000FCF7D6F8071C391C281C00220123FEF758
:1050A000BEFA061C012F07D92320FCF761FD013F42
:1050B000FFB24743F61BF6B2281C7721FEF772F8C1
:1050C0000027B04202D9801BC2B25708281C012316
:1050D000A77001990022FEF7A2FA019B051C012B83
:1050E00008D9191C01392320CEB2FCF741FD4643F3
:1050F000AD1BEDB2207863783A18AF18A770E37053
:1051000001202BE00568281CFCF79AF80122011CFD
:105110000023281CFEF783FA6822011C281C18E0D3
:105120000568281CFCF78CF8061C311C281C002282
:105130000123FEF774FA041C012E07D92320FCF783
:1051400017FD013EF7B24743E41BE4B2281C211CC3
:105150007722FFF77BFF01E0FEF7E0F8FEBDF8B530
:105160000279112A33D0122A43D0042A51D105687A
:1051700046798468281CFCF763F80122071C391C57
:10518000131C281CFEF74BFA391CFFF7CDFE071C39
:10519000281CFFF73BFF0021B84202D9C31BD8B23D
:1051A0004108CA190136D7B2F6B20122131C281CD5
:1051B000311CE770FEF733FA311CFFF7B5FE637858
:1051C0003D1A2178E818E070A170012023E00768FB
:1051D000381CFCF735F80122061C131C311C381C46
:1051E000FEF71DFA311CFFF79FFE6822011C381CD8
:1051F0000CE00468201CFCF723F80022011C131C9F
:10520000201CFEF70CFA7722011C201CFFF71EFF62
:1052100001E0FEF783F8F8BD08B5FCF741FC064B4A
:105220004000C15C0122114204D01B1858780021B3
:10523000FCF71CFB08BDC046DC04001010B50124BF
:10524000201C0134E4B2FFF7E7FF122CF8D110BDA7
:1052500008B5002904D0012905D1FFF7EFFF02E0CE
:10526000FFF782FE00E0002008BD0000094B02228B
:10527000D87F80219A775877CA055068042118771B
:10528000202091619061102108201160906101221D
:10529000DA7770473004001070B5041C0D1C161C22
:1052A000FEF71AFD2C2808D0FEF716FD2A2804D098
:1052B000281CFFF723FE051E03D0002020700123C9
:1052C00007E0301CFFF71AFE2B1C002801D0012339
:1052D0002370181C70BD08B52C20FFF70FFE08BD09
:1052E00008B5FEF70CF9FFF77DFE08BD08B5FEF71F
:1052F00006F9FFF791FE08BD08B5031C00791038C8
:1053000009280ED800F074F91105090D0D0D0D0DC9
:105310000D11181CFFF7E4FF08E0181CFFF7E6FF6B
:1053200004E0181CFDF7AAFF00E0012008BD10B53D
:105330000379041C162B08D108210068FEF73CFAFB
:10534000011C201C8847012001E0FFF7D5FF10BD9C
:1053500010B500680C1C0821FEF7ECF8002C02D0F8
:10536000FEF744F901E0FEF746F910BD70B5051CE3
:105370000E1E06D0FFF7B4FF041C2920002C08D114
:1053800004E0FFF7B3FF041E03D12820FCF7F0FB75
:10539000041C281C311CFFF7DBFF031CA04200D2B9
:1053A000231CD8B270BD0000094B10B59A6B094898
:1053B00009490A4B002402602720CB604C71FCF79E
:1053C000D7FB1320211C221CFDF7ACFD10BDC046ED
:1053D000CC0300100005001058040010656B00009D
:1053E00070B5061C0D1C00242978002907D0301C3C
:1053F000FEF7C6FF337F0135E418E4B2F4E7201C62
:1054000070BDF7B5041C0192081C0E1C9047051CCA
:105410000020854221D0201C291CFEF7B1FF677FA8
:105420007842C7B20136301C019B984700280BD048
:10543000217F019D7A18301CD7B2A847051C291C72
:10544000201CFEF79DFFEDE7202D03D0667FE07F57
:10545000341800E0247F3B19D8B2FEBDF0B50F1C14
:1054600087B0191C041C161CFEF78AFF051E3DD0D0
:10547000A2681078FCF7E4F8E37F05900293601CC3
:10548000C17FA07F627F361ABF18F2B2FBB2571AF3
:10549000FEB2049303920091201C191C321C029B43
:1054A000FCF7DAF8002820D0029B05990733D8B220
:1054B000C2086D180292039FBE4216D02F1C791BA2
:1054C000CBB2049AD80011180298C9B2834208D20C
:1054D0003B78201C0093321C0023FBF724FF01378C
:1054E000EDE701362D18F6B2E5E7257F68B207B083
:1054F000F0BDF7B5061C1D1C736A141C0F1C9847E1
:105500000019C1B2019100242B78002B0BD0391C5B
:10551000019A301CFFF7A2FFC2B2D7191419FFB2CB
:10552000E4B20135F0E7201CFEBD000010B50D4BC4
:105530009A681C1CD10713D40B4803686169C9071A
:105540000ED50A4A07491068013010600A680849F8
:1055500090B20880002BF1D00A88D0B29847EBE7D0
:1055600010BDC04600800040040500102006001059
:105570001C060010064B1A680132632A01D81A6013
:1055800004E0596800200131186059607047C04636
:1055900008050010114B00221A6201201A64232111
:1055A0005A648E22586492009960995880208143F1
:1055B0009950D8680121094A0842FAD000200323F3
:1055C0001367506751679167054A0649064B0A60A1
:1055D000064A5A60986007201860704700800440AF
:1055E000006CDC027400001010E000E0FF520700C5
:1055F00002B4714649084900095C49008E4402BC66
:105600007047C04603B47146490840004900095E2E
:1056100049008E4403BC704703B4714649084000FA
:105620004900095A49008E4403BC7047002934D010
:105630000123002210B488422CD301242407A14264
:1056400004D2814202D209011B01F8E7E400A14221
:1056500004D2814202D249005B00F8E7884201D3BC
:10566000401A1A434C08A04202D3001B5C08224394
:105670008C08A04202D3001B9C082243CC08A04205
:1056800002D3001BDC082243002803D01B0901D0F1
:105690000909E3E7101C10BC7047002801D0002066
:1056A000C04307B4024802A14018029003BDC0469F
:1056B000D90000000029F0D003B5FFF7B9FF0EBCF8
:1056C0004243891A1847C046002941D010B4041C2F
:1056D0004C40A44601230022002900D5494200285D
:1056E00000D5404288422CD301242407A14204D291
:1056F000814202D209011B01F8E7E400A14204D271
:10570000814202D249005B00F8E7884201D3401A87
:105710001A434C08A04202D3001B5C0822438C08A9
:10572000A04202D3001B9C082243CC08A04202D313
:10573000001BDC082243002803D01B0901D0090903
:10574000E3E7101C6446002C00D5404210BC7047B3
:10575000002806D003DB0020C043400801E0802081
:10576000000607B4024802A14018029003BDC046DB
:10577000190000000029EBD003B5FFF7A7FF0EBC0E
:105780004243891A1847C0467047C0468446081CE1
:105790006146FFE71FB500F0CBFB002801D40021D4
:1057A000C8421FBD10B500F053FB4042013010BD90
:1057B00010B500F0BDFB002801DB002010BD01206A
:1057C00010BDC04610B500F0B3FB002801DD00207D
:1057D00010BD012010BDC04610B500F061FB0028CF
:1057E00001DC002010BD012010BDC04610B500F046
:1057F00057FB002801DA002010BD012010BDC04673
:105800009E2110B5C905041CFFF7F0FF002803D145
:10581000201C00F0DFFE10BD9E22201CD10500F0F0
:10582000FFFC00F0D7FE80231C060019F3E7C046FA
:10583000F8B5430242004F024C00C00F9B09120E04
:10584000061C9C46240EC90FBF09884257D0151B61
:10585000002D00DC7EE0002C41D1002F64D0013D02
:10586000002D00D0ABE0DB1B141C061C590144D5F5
:105870009A019509281C00F021FF053885408442D3
:1058800000DD79E0001B1F242B1C411C221ACB4099
:1058900095401F1C2B1C5D1EAB413B430125002482
:1058A0000F201840042800D004338021CF040122A7
:1058B0001F401640002F05D0FF2D5AD0B34C234077
:1058C0002C1C0135EDB2DA08012D3BDD53025A0ADA
:1058D000E4B2E4052243F607101C3043F8BDFF2A6A
:1058E0002BD08021CC04274301231B2D49DD6746A3
:1058F000FB1A141C061C5901BAD4651CD0E7151BF1
:10590000002D4FDD002C13D0FF2A5AD08024E10453
:105910000F4301231B2D00DCB0E06344141C59012C
:1059200055D4651C061CBBE7551C141C061CB7E7A8
:10593000002F7CD1551C141CB2E7802763467D00E4
:10594000FF24ADE7002AC3D0002C28D08020C1035B
:105950000A43BBE7002D47D1501CC3B2012B00DC2A
:1059600096E06446E51B680158D53D1B0E1C141CCF
:1059700080E7FF240022ACE7844B241A2B40651CEF
:105980008EE73E1C2021EE404D1BAF403B1C5F1EAE
:10599000BB4133436746FB1A141C061CABE7570296
:1059A0007A0A96E7002D7FD1541CE1B2012953DD1C
:1059B000FF2C00D19BE0FB185B08951C70E7FF2AC9
:1059C00092D1061C802063464500FF2468E7671CCF
:1059D000FF2F3CD06D4A01261E4013405B08334325
:1059E000A51C061C3C1C5BE76842002A25D0FF2C46
:1059F00070D08022D6041D1C3543AC4601261B28DE
:105A000009DC62462025C2402B1A60469840061CDD
:105A1000701E86411643BB1B0E1C27E7141C002D6D
:105A200000D027E700260125042300244AE7013D92
:105A3000002D08D1FB18141C71E7002B50D1651CF8
:105A40003B1C0E1C2CE7FF2A00D062E7B9E780233D
:105A50005D00FF24042335E7002A7CD1002B00D110
:105A6000A1E0002F00D1AFE0FB18590100D4B0E055
:105A7000464E022533400124061C11E73C1C20231E
:105A8000EC405D1BAF403B1C5F1EBB41234344E722
:105A9000002A12D16546002D41D1002FC2D03B1CF7
:105AA0000E1C01250024FBE66D42002A23D1002BA9
:105AB00066D1651C3B1C061CF2E66246002A38D102
:105AC000002F07D1802200265500314BFF24F9E634
:105AD000FF2C93D13B1C80270E1C7D00FF24DFE6AA
